{
  "_format": "hh-sol-artifact-1",
  "contractName": "DecentralizedLottery",
  "sourceName": "contracts/DecentralizedLottery.sol",
  "abi": [
    {
      "inputs": [
        {
          "internalType": "address",
          "name": "_betToken",
          "type": "address"
        },
        {
          "internalType": "address",
          "name": "_ticketNft",
          "type": "address"
        }
      ],
      "stateMutability": "nonpayable",
      "type": "constructor"
    },
    {
      "inputs": [
        {
          "internalType": "address",
          "name": "owner",
          "type": "address"
        }
      ],
      "name": "OwnableInvalidOwner",
      "type": "error"
    },
    {
      "inputs": [
        {
          "internalType": "address",
          "name": "account",
          "type": "address"
        }
      ],
      "name": "OwnableUnauthorizedAccount",
      "type": "error"
    },
    {
      "anonymous": false,
      "inputs": [
        {
          "indexed": true,
          "internalType": "uint256",
          "name": "projectId",
          "type": "uint256"
        },
        {
          "indexed": true,
          "internalType": "uint256",
          "name": "optionId",
          "type": "uint256"
        },
        {
          "indexed": true,
          "internalType": "address",
          "name": "player",
          "type": "address"
        },
        {
          "indexed": false,
          "internalType": "uint256",
          "name": "amount",
          "type": "uint256"
        },
        {
          "indexed": false,
          "internalType": "uint256",
          "name": "tokenId",
          "type": "uint256"
        }
      ],
      "name": "BetPlaced",
      "type": "event"
    },
    {
      "anonymous": false,
      "inputs": [
        {
          "indexed": true,
          "internalType": "address",
          "name": "previousOwner",
          "type": "address"
        },
        {
          "indexed": true,
          "internalType": "address",
          "name": "newOwner",
          "type": "address"
        }
      ],
      "name": "OwnershipTransferred",
      "type": "event"
    },
    {
      "anonymous": false,
      "inputs": [
        {
          "indexed": true,
          "internalType": "uint256",
          "name": "projectId",
          "type": "uint256"
        },
        {
          "indexed": false,
          "internalType": "string",
          "name": "name",
          "type": "string"
        },
        {
          "indexed": false,
          "internalType": "uint256",
          "name": "oraclePool",
          "type": "uint256"
        }
      ],
      "name": "ProjectCreated",
      "type": "event"
    },
    {
      "anonymous": false,
      "inputs": [
        {
          "indexed": true,
          "internalType": "uint256",
          "name": "projectId",
          "type": "uint256"
        },
        {
          "indexed": false,
          "internalType": "uint256",
          "name": "winningOptionId",
          "type": "uint256"
        }
      ],
      "name": "ProjectResolved",
      "type": "event"
    },
    {
      "anonymous": false,
      "inputs": [
        {
          "indexed": true,
          "internalType": "uint256",
          "name": "tokenId",
          "type": "uint256"
        },
        {
          "indexed": true,
          "internalType": "address",
          "name": "player",
          "type": "address"
        },
        {
          "indexed": false,
          "internalType": "uint256",
          "name": "payout",
          "type": "uint256"
        }
      ],
      "name": "WinningsClaimed",
      "type": "event"
    },
    {
      "inputs": [
        {
          "internalType": "uint256",
          "name": "projectId",
          "type": "uint256"
        },
        {
          "internalType": "uint256",
          "name": "optionId",
          "type": "uint256"
        },
        {
          "internalType": "uint256",
          "name": "amount",
          "type": "uint256"
        }
      ],
      "name": "bet",
      "outputs": [],
      "stateMutability": "nonpayable",
      "type": "function"
    },
    {
      "inputs": [],
      "name": "betTokenAddress",
      "outputs": [
        {
          "internalType": "address",
          "name": "",
          "type": "address"
        }
      ],
      "stateMutability": "view",
      "type": "function"
    },
    {
      "inputs": [
        {
          "internalType": "uint256",
          "name": "tokenId",
          "type": "uint256"
        }
      ],
      "name": "claimWinnings",
      "outputs": [],
      "stateMutability": "nonpayable",
      "type": "function"
    },
    {
      "inputs": [
        {
          "internalType": "string",
          "name": "name",
          "type": "string"
        },
        {
          "internalType": "string[]",
          "name": "optionNames",
          "type": "string[]"
        },
        {
          "internalType": "uint256",
          "name": "oraclePoolAmount",
          "type": "uint256"
        }
      ],
      "name": "createProject",
      "outputs": [],
      "stateMutability": "nonpayable",
      "type": "function"
    },
    {
      "inputs": [
        {
          "internalType": "uint256",
          "name": "projectId",
          "type": "uint256"
        }
      ],
      "name": "getProjectInfo",
      "outputs": [
        {
          "internalType": "string",
          "name": "name",
          "type": "string"
        },
        {
          "internalType": "uint256",
          "name": "oraclePrizePool",
          "type": "uint256"
        },
        {
          "internalType": "uint256",
          "name": "totalPlayerBets",
          "type": "uint256"
        },
        {
          "internalType": "bool",
          "name": "isOpen",
          "type": "bool"
        },
        {
          "internalType": "bool",
          "name": "isResolved",
          "type": "bool"
        },
        {
          "internalType": "uint256",
          "name": "winningOptionId",
          "type": "uint256"
        },
        {
          "internalType": "uint256",
          "name": "optionCount",
          "type": "uint256"
        }
      ],
      "stateMutability": "view",
      "type": "function"
    },
    {
      "inputs": [
        {
          "internalType": "uint256",
          "name": "projectId",
          "type": "uint256"
        },
        {
          "internalType": "uint256",
          "name": "optionIndex",
          "type": "uint256"
        }
      ],
      "name": "getProjectOption",
      "outputs": [
        {
          "internalType": "string",
          "name": "name",
          "type": "string"
        },
        {
          "internalType": "uint256",
          "name": "totalBetAmount",
          "type": "uint256"
        }
      ],
      "stateMutability": "view",
      "type": "function"
    },
    {
      "inputs": [
        {
          "internalType": "uint256",
          "name": "projectId",
          "type": "uint256"
        }
      ],
      "name": "getProjectOptionCount",
      "outputs": [
        {
          "internalType": "uint256",
          "name": "",
          "type": "uint256"
        }
      ],
      "stateMutability": "view",
      "type": "function"
    },
    {
      "inputs": [],
      "name": "nextProjectId",
      "outputs": [
        {
          "internalType": "uint256",
          "name": "",
          "type": "uint256"
        }
      ],
      "stateMutability": "view",
      "type": "function"
    },
    {
      "inputs": [],
      "name": "oracle",
      "outputs": [
        {
          "internalType": "address",
          "name": "",
          "type": "address"
        }
      ],
      "stateMutability": "view",
      "type": "function"
    },
    {
      "inputs": [],
      "name": "owner",
      "outputs": [
        {
          "internalType": "address",
          "name": "",
          "type": "address"
        }
      ],
      "stateMutability": "view",
      "type": "function"
    },
    {
      "inputs": [
        {
          "internalType": "uint256",
          "name": "",
          "type": "uint256"
        }
      ],
      "name": "projects",
      "outputs": [
        {
          "internalType": "string",
          "name": "name",
          "type": "string"
        },
        {
          "internalType": "uint256",
          "name": "oraclePrizePool",
          "type": "uint256"
        },
        {
          "internalType": "uint256",
          "name": "totalPlayerBets",
          "type": "uint256"
        },
        {
          "internalType": "bool",
          "name": "isOpen",
          "type": "bool"
        },
        {
          "internalType": "bool",
          "name": "isResolved",
          "type": "bool"
        },
        {
          "internalType": "uint256",
          "name": "winningOptionId",
          "type": "uint256"
        }
      ],
      "stateMutability": "view",
      "type": "function"
    },
    {
      "inputs": [],
      "name": "renounceOwnership",
      "outputs": [],
      "stateMutability": "nonpayable",
      "type": "function"
    },
    {
      "inputs": [
        {
          "internalType": "uint256",
          "name": "projectId",
          "type": "uint256"
        },
        {
          "internalType": "uint256",
          "name": "winningOptionId",
          "type": "uint256"
        }
      ],
      "name": "resolveProject",
      "outputs": [],
      "stateMutability": "nonpayable",
      "type": "function"
    },
    {
      "inputs": [],
      "name": "ticketNftAddress",
      "outputs": [
        {
          "internalType": "address",
          "name": "",
          "type": "address"
        }
      ],
      "stateMutability": "view",
      "type": "function"
    },
    {
      "inputs": [
        {
          "internalType": "address",
          "name": "newOwner",
          "type": "address"
        }
      ],
      "name": "transferOwnership",
      "outputs": [],
      "stateMutability": "nonpayable",
      "type": "function"
    }
  ],
  "bytecode": "0x60c06040523480156200001157600080fd5b50604051620026e9380380620026e983398181016040528101906200003791906200029e565b33600073ffffffffffffffffffffffffffffffffffffffff168173ffffffffffffffffffffffffffffffffffffffff1603620000ad5760006040517f1e4fbdf7000000000000000000000000000000000000000000000000000000008152600401620000a49190620002f6565b60405180910390fd5b620000be816200017060201b60201c565b5033600160006101000a81548173ffffffffffffffffffffffffffffffffffffffff021916908373ffffffffffffffffffffffffffffffffffffffff1602179055508173ffffffffffffffffffffffffffffffffffffffff1660808173ffffffffffffffffffffffffffffffffffffffff16815250508073ffffffffffffffffffffffffffffffffffffffff1660a08173ffffffffffffffffffffffffffffffffffffffff1681525050505062000313565b60008060009054906101000a900473ffffffffffffffffffffffffffffffffffffffff169050816000806101000a81548173ffffffffffffffffffffffffffffffffffffffff021916908373ffffffffffffffffffffffffffffffffffffffff1602179055508173ffffffffffffffffffffffffffffffffffffffff168173ffffffffffffffffffffffffffffffffffffffff167f8be0079c531659141344cd1fd0a4f28419497f9722a3daafe3b4186f6b6457e060405160405180910390a35050565b600080fd5b600073ffffffffffffffffffffffffffffffffffffffff82169050919050565b6000620002668262000239565b9050919050565b620002788162000259565b81146200028457600080fd5b50565b60008151905062000298816200026d565b92915050565b60008060408385031215620002b857620002b762000234565b5b6000620002c88582860162000287565b9250506020620002db8582860162000287565b9150509250929050565b620002f08162000259565b82525050565b60006020820190506200030d6000830184620002e5565b92915050565b60805160a05161238d6200035c6000396000818161064f01528181610caa0152610e8b0152600081816104620152818161095a01528181610a8d0152610bae015261238d6000f3fe608060405234801561001057600080fd5b50600436106100f55760003560e01c806391ecb71811610097578063edb6bdfb11610066578063edb6bdfb14610266578063f2093eb614610284578063f2fde38b146102a0578063fabf5968146102bc576100f5565b806391ecb718146101cb578063bfc54822146101fb578063c37132d014610217578063e935b7b114610248576100f5565b8063715018a6116100d3578063715018a6146101675780637dc0d1d014610171578063832bde101461018f5780638da5cb5b146101ad576100f5565b8063107046bd146100fa578063545539331461012f578063677bd9ff1461014b575b600080fd5b610114600480360381019061010f91906113a1565b6102f2565b60405161012696959493929190611488565b60405180910390f35b6101496004803603810190610144919061170b565b6103d0565b005b610165600480360381019061016091906113a1565b61064b565b005b61016f610a51565b005b610179610a65565b60405161018691906117d7565b60405180910390f35b610197610a8b565b6040516101a491906117d7565b60405180910390f35b6101b5610aaf565b6040516101c291906117d7565b60405180910390f35b6101e560048036038101906101e091906113a1565b610ad8565b6040516101f291906117f2565b60405180910390f35b6102156004803603810190610210919061180d565b610afb565b005b610231600480360381019061022c9190611860565b610da5565b60405161023f9291906118a0565b60405180910390f35b610250610e83565b60405161025d91906117f2565b60405180910390f35b61026e610e89565b60405161027b91906117d7565b60405180910390f35b61029e60048036038101906102999190611860565b610ead565b005b6102ba60048036038101906102b591906118fc565b611077565b005b6102d660048036038101906102d191906113a1565b6110fd565b6040516102e99796959493929190611929565b60405180910390f35b6002602052806000526040600020600091509050806000018054610315906119ce565b80601f0160208091040260200160405190810160405280929190818152602001828054610341906119ce565b801561038e5780601f106103635761010080835404028352916020019161038e565b820191906000526020600020905b81548152906001019060200180831161037157829003601f168201915b5050505050908060010154908060020154908060030160009054906101000a900460ff16908060030160019054906101000a900460ff16908060040154905086565b600160009054906101000a900473ffffffffffffffffffffffffffffffffffffffff1673ffffffffffffffffffffffffffffffffffffffff163373ffffffffffffffffffffffffffffffffffffffff1614610460576040517f08c379a000000000000000000000000000000000000000000000000000000000815260040161045790611a4b565b60405180910390fd5b7f000000000000000000000000000000000000000000000000000000000000000073ffffffffffffffffffffffffffffffffffffffff166323b872dd3330846040518463ffffffff1660e01b81526004016104bd93929190611a6b565b6020604051808303816000875af11580156104dc573d6000803e3d6000fd5b505050506040513d601f19601f820116820180604052508101906105009190611ace565b50600060026000600354815260200190815260200160002090508381600001908161052b9190611ca7565b5081816001018190555060018160030160006101000a81548160ff02191690831515021790555060005b83518110156105f0578160050160405180604001604052808684815181106105805761057f611d79565b5b602002602001015181526020016000815250908060018154018082558091505060019003906000526020600020906002020160009091909190915060008201518160000190816105d09190611ca7565b5060208201518160010155505080806105e890611dd7565b915050610555565b506003547f6245d01eb0db8df9242165c3ee1e2324367f93303d7b8f6a86e38a8767e643ae85846040516106259291906118a0565b60405180910390a26003600081548092919061064090611dd7565b919050555050505050565b60007f000000000000000000000000000000000000000000000000000000000000000090503373ffffffffffffffffffffffffffffffffffffffff168173ffffffffffffffffffffffffffffffffffffffff16636352211e846040518263ffffffff1660e01b81526004016106c091906117f2565b602060405180830381865afa1580156106dd573d6000803e3d6000fd5b505050506040513d601f19601f820116820180604052508101906107019190611e34565b73ffffffffffffffffffffffffffffffffffffffff1614610757576040517f08c379a000000000000000000000000000000000000000000000000000000000815260040161074e90611ead565b60405180910390fd5b60008060008373ffffffffffffffffffffffffffffffffffffffff1663fa713083866040518263ffffffff1660e01b815260040161079591906117f2565b606060405180830381865afa1580156107b2573d6000803e3d6000fd5b505050506040513d601f19601f820116820180604052508101906107d69190611ee2565b92509250925060006002600085815260200190815260200160002090508060030160019054906101000a900460ff16610844576040517f08c379a000000000000000000000000000000000000000000000000000000000815260040161083b90611f81565b60405180910390fd5b8060040154831461088a576040517f08c379a000000000000000000000000000000000000000000000000000000000815260040161088190611fed565b60405180910390fd5b6000816002015482600101546108a0919061200d565b90506000826005018360040154815481106108be576108bd611d79565b5b906000526020600020906002020160010154905060008183866108e19190612041565b6108eb91906120b2565b90508773ffffffffffffffffffffffffffffffffffffffff1663a476b73d8a6040518263ffffffff1660e01b815260040161092691906117f2565b600060405180830381600087803b15801561094057600080fd5b505af1158015610954573d6000803e3d6000fd5b505050507f000000000000000000000000000000000000000000000000000000000000000073ffffffffffffffffffffffffffffffffffffffff1663a9059cbb33836040518363ffffffff1660e01b81526004016109b39291906120e3565b6020604051808303816000875af11580156109d2573d6000803e3d6000fd5b505050506040513d601f19601f820116820180604052508101906109f69190611ace565b503373ffffffffffffffffffffffffffffffffffffffff16897f5380cf6fe903b40c6d5a9e0dfbca2f3a423f0a21520b4d5947ed5169bdba946d83604051610a3e91906117f2565b60405180910390a3505050505050505050565b610a59611204565b610a63600061128b565b565b600160009054906101000a900473ffffffffffffffffffffffffffffffffffffffff1681565b7f000000000000000000000000000000000000000000000000000000000000000081565b60008060009054906101000a900473ffffffffffffffffffffffffffffffffffffffff16905090565b600060026000838152602001908152602001600020600501805490509050919050565b60006002600085815260200190815260200160002090508060030160009054906101000a900460ff16610b63576040517f08c379a0000000000000000000000000000000000000000000000000000000008152600401610b5a90612158565b60405180910390fd5b80600501805490508310610bac576040517f08c379a0000000000000000000000000000000000000000000000000000000008152600401610ba3906121c4565b60405180910390fd5b7f000000000000000000000000000000000000000000000000000000000000000073ffffffffffffffffffffffffffffffffffffffff166323b872dd3330856040518463ffffffff1660e01b8152600401610c0993929190611a6b565b6020604051808303816000875af1158015610c28573d6000803e3d6000fd5b505050506040513d601f19601f82011682018060405250810190610c4c9190611ace565b5081816005018481548110610c6457610c63611d79565b5b90600052602060002090600202016001016000828254610c84919061200d565b9250508190555081816002016000828254610c9f919061200d565b9250508190555060007f000000000000000000000000000000000000000000000000000000000000000073ffffffffffffffffffffffffffffffffffffffff16634945646e338787876040518563ffffffff1660e01b8152600401610d0794939291906121e4565b6020604051808303816000875af1158015610d26573d6000803e3d6000fd5b505050506040513d601f19601f82011682018060405250810190610d4a9190612229565b90503373ffffffffffffffffffffffffffffffffffffffff1684867f9ab6b286d532c308925cb0664fe6228b8fe0d5137820cc28dc0ec44f7a3959e38685604051610d96929190612256565b60405180910390a45050505050565b6060600080600260008681526020019081526020016000206005018481548110610dd257610dd1611d79565b5b90600052602060002090600202019050806000018160010154818054610df7906119ce565b80601f0160208091040260200160405190810160405280929190818152602001828054610e23906119ce565b8015610e705780601f10610e4557610100808354040283529160200191610e70565b820191906000526020600020905b815481529060010190602001808311610e5357829003601f168201915b5050505050915092509250509250929050565b60035481565b7f000000000000000000000000000000000000000000000000000000000000000081565b600160009054906101000a900473ffffffffffffffffffffffffffffffffffffffff1673ffffffffffffffffffffffffffffffffffffffff163373ffffffffffffffffffffffffffffffffffffffff1614610f3d576040517f08c379a0000000000000000000000000000000000000000000000000000000008152600401610f3490611a4b565b60405180910390fd5b60006002600084815260200190815260200160002090508060030160009054906101000a900460ff16610fa5576040517f08c379a0000000000000000000000000000000000000000000000000000000008152600401610f9c906122cb565b60405180910390fd5b8060030160019054906101000a900460ff1615610ff7576040517f08c379a0000000000000000000000000000000000000000000000000000000008152600401610fee90612337565b60405180910390fd5b60008160030160006101000a81548160ff02191690831515021790555060018160030160016101000a81548160ff021916908315150217905550818160040181905550827f4eaea0ff26d763e91d832cc19e60e11ab6fe1346663bd81a7cc661aa08a2d6d68360405161106a91906117f2565b60405180910390a2505050565b61107f611204565b600073ffffffffffffffffffffffffffffffffffffffff168173ffffffffffffffffffffffffffffffffffffffff16036110f15760006040517f1e4fbdf70000000000000000000000000000000000000000000000000000000081526004016110e891906117d7565b60405180910390fd5b6110fa8161128b565b50565b60606000806000806000806000600260008a8152602001908152602001600020905080600001816001015482600201548360030160009054906101000a900460ff168460030160019054906101000a900460ff168560040154866005018054905086805461116a906119ce565b80601f0160208091040260200160405190810160405280929190818152602001828054611196906119ce565b80156111e35780601f106111b8576101008083540402835291602001916111e3565b820191906000526020600020905b8154815290600101906020018083116111c657829003601f168201915b50505050509650975097509750975097509750975050919395979092949650565b61120c61134f565b73ffffffffffffffffffffffffffffffffffffffff1661122a610aaf565b73ffffffffffffffffffffffffffffffffffffffff16146112895761124d61134f565b6040517f118cdaa700000000000000000000000000000000000000000000000000000000815260040161128091906117d7565b60405180910390fd5b565b60008060009054906101000a900473ffffffffffffffffffffffffffffffffffffffff169050816000806101000a81548173ffffffffffffffffffffffffffffffffffffffff021916908373ffffffffffffffffffffffffffffffffffffffff1602179055508173ffffffffffffffffffffffffffffffffffffffff168173ffffffffffffffffffffffffffffffffffffffff167f8be0079c531659141344cd1fd0a4f28419497f9722a3daafe3b4186f6b6457e060405160405180910390a35050565b600033905090565b6000604051905090565b600080fd5b600080fd5b6000819050919050565b61137e8161136b565b811461138957600080fd5b50565b60008135905061139b81611375565b92915050565b6000602082840312156113b7576113b6611361565b5b60006113c58482850161138c565b91505092915050565b600081519050919050565b600082825260208201905092915050565b60005b838110156114085780820151818401526020810190506113ed565b60008484015250505050565b6000601f19601f8301169050919050565b6000611430826113ce565b61143a81856113d9565b935061144a8185602086016113ea565b61145381611414565b840191505092915050565b6114678161136b565b82525050565b60008115159050919050565b6114828161146d565b82525050565b600060c08201905081810360008301526114a28189611425565b90506114b1602083018861145e565b6114be604083018761145e565b6114cb6060830186611479565b6114d86080830185611479565b6114e560a083018461145e565b979650505050505050565b600080fd5b600080fd5b7f4e487b7100000000000000000000000000000000000000000000000000000000600052604160045260246000fd5b61153282611414565b810181811067ffffffffffffffff82111715611551576115506114fa565b5b80604052505050565b6000611564611357565b90506115708282611529565b919050565b600067ffffffffffffffff8211156115905761158f6114fa565b5b61159982611414565b9050602081019050919050565b82818337600083830152505050565b60006115c86115c384611575565b61155a565b9050828152602081018484840111156115e4576115e36114f5565b5b6115ef8482856115a6565b509392505050565b600082601f83011261160c5761160b6114f0565b5b813561161c8482602086016115b5565b91505092915050565b600067ffffffffffffffff8211156116405761163f6114fa565b5b602082029050602081019050919050565b600080fd5b600061166961166484611625565b61155a565b9050808382526020820190506020840283018581111561168c5761168b611651565b5b835b818110156116d357803567ffffffffffffffff8111156116b1576116b06114f0565b5b8086016116be89826115f7565b8552602085019450505060208101905061168e565b5050509392505050565b600082601f8301126116f2576116f16114f0565b5b8135611702848260208601611656565b91505092915050565b60008060006060848603121561172457611723611361565b5b600084013567ffffffffffffffff81111561174257611741611366565b5b61174e868287016115f7565b935050602084013567ffffffffffffffff81111561176f5761176e611366565b5b61177b868287016116dd565b925050604061178c8682870161138c565b9150509250925092565b600073ffffffffffffffffffffffffffffffffffffffff82169050919050565b60006117c182611796565b9050919050565b6117d1816117b6565b82525050565b60006020820190506117ec60008301846117c8565b92915050565b6000602082019050611807600083018461145e565b92915050565b60008060006060848603121561182657611825611361565b5b60006118348682870161138c565b93505060206118458682870161138c565b92505060406118568682870161138c565b9150509250925092565b6000806040838503121561187757611876611361565b5b60006118858582860161138c565b92505060206118968582860161138c565b9150509250929050565b600060408201905081810360008301526118ba8185611425565b90506118c9602083018461145e565b9392505050565b6118d9816117b6565b81146118e457600080fd5b50565b6000813590506118f6816118d0565b92915050565b60006020828403121561191257611911611361565b5b6000611920848285016118e7565b91505092915050565b600060e0820190508181036000830152611943818a611425565b9050611952602083018961145e565b61195f604083018861145e565b61196c6060830187611479565b6119796080830186611479565b61198660a083018561145e565b61199360c083018461145e565b98975050505050505050565b7f4e487b7100000000000000000000000000000000000000000000000000000000600052602260045260246000fd5b600060028204905060018216806119e657607f821691505b6020821081036119f9576119f861199f565b5b50919050565b7f4e6f74206f7261636c6500000000000000000000000000000000000000000000600082015250565b6000611a35600a836113d9565b9150611a40826119ff565b602082019050919050565b60006020820190508181036000830152611a6481611a28565b9050919050565b6000606082019050611a8060008301866117c8565b611a8d60208301856117c8565b611a9a604083018461145e565b949350505050565b611aab8161146d565b8114611ab657600080fd5b50565b600081519050611ac881611aa2565b92915050565b600060208284031215611ae457611ae3611361565b5b6000611af284828501611ab9565b91505092915050565b60008190508160005260206000209050919050565b60006020601f8301049050919050565b600082821b905092915050565b600060088302611b5d7fffffffffffffffffffffffffffffffffffffffffffffffffffffffffffffffff82611b20565b611b678683611b20565b95508019841693508086168417925050509392505050565b6000819050919050565b6000611ba4611b9f611b9a8461136b565b611b7f565b61136b565b9050919050565b6000819050919050565b611bbe83611b89565b611bd2611bca82611bab565b848454611b2d565b825550505050565b600090565b611be7611bda565b611bf2818484611bb5565b505050565b5b81811015611c1657611c0b600082611bdf565b600181019050611bf8565b5050565b601f821115611c5b57611c2c81611afb565b611c3584611b10565b81016020851015611c44578190505b611c58611c5085611b10565b830182611bf7565b50505b505050565b600082821c905092915050565b6000611c7e60001984600802611c60565b1980831691505092915050565b6000611c978383611c6d565b9150826002028217905092915050565b611cb0826113ce565b67ffffffffffffffff811115611cc957611cc86114fa565b5b611cd382546119ce565b611cde828285611c1a565b600060209050601f831160018114611d115760008415611cff578287015190505b611d098582611c8b565b865550611d71565b601f198416611d1f86611afb565b60005b82811015611d4757848901518255600182019150602085019450602081019050611d22565b86831015611d645784890151611d60601f891682611c6d565b8355505b6001600288020188555050505b505050505050565b7f4e487b7100000000000000000000000000000000000000000000000000000000600052603260045260246000fd5b7f4e487b7100000000000000000000000000000000000000000000000000000000600052601160045260246000fd5b6000611de28261136b565b91507fffffffffffffffffffffffffffffffffffffffffffffffffffffffffffffffff8203611e1457611e13611da8565b5b600182019050919050565b600081519050611e2e816118d0565b92915050565b600060208284031215611e4a57611e49611361565b5b6000611e5884828501611e1f565b91505092915050565b7f4e6f74207469636b6574206f776e657200000000000000000000000000000000600082015250565b6000611e976010836113d9565b9150611ea282611e61565b602082019050919050565b60006020820190508181036000830152611ec681611e8a565b9050919050565b600081519050611edc81611375565b92915050565b600080600060608486031215611efb57611efa611361565b5b6000611f0986828701611ecd565b9350506020611f1a86828701611ecd565b9250506040611f2b86828701611ecd565b9150509250925092565b7f50726f6a656374206e6f74207265736f6c766564000000000000000000000000600082015250565b6000611f6b6014836113d9565b9150611f7682611f35565b602082019050919050565b60006020820190508181036000830152611f9a81611f5e565b9050919050565b7f4e6f7420612077696e6e696e67207469636b6574000000000000000000000000600082015250565b6000611fd76014836113d9565b9150611fe282611fa1565b602082019050919050565b6000602082019050818103600083015261200681611fca565b9050919050565b60006120188261136b565b91506120238361136b565b925082820190508082111561203b5761203a611da8565b5b92915050565b600061204c8261136b565b91506120578361136b565b92508282026120658161136b565b9150828204841483151761207c5761207b611da8565b5b5092915050565b7f4e487b7100000000000000000000000000000000000000000000000000000000600052601260045260246000fd5b60006120bd8261136b565b91506120c88361136b565b9250826120d8576120d7612083565b5b828204905092915050565b60006040820190506120f860008301856117c8565b612105602083018461145e565b9392505050565b7f50726f6a65637420697320636c6f736564000000000000000000000000000000600082015250565b60006121426011836113d9565b915061214d8261210c565b602082019050919050565b6000602082019050818103600083015261217181612135565b9050919050565b7f496e76616c6964206f7074696f6e000000000000000000000000000000000000600082015250565b60006121ae600e836113d9565b91506121b982612178565b602082019050919050565b600060208201905081810360008301526121dd816121a1565b9050919050565b60006080820190506121f960008301876117c8565b612206602083018661145e565b612213604083018561145e565b612220606083018461145e565b95945050505050565b60006020828403121561223f5761223e611361565b5b600061224d84828501611ecd565b91505092915050565b600060408201905061226b600083018561145e565b612278602083018461145e565b9392505050565b7f50726f6a656374206e6f74206f70656e00000000000000000000000000000000600082015250565b60006122b56010836113d9565b91506122c08261227f565b602082019050919050565b600060208201905081810360008301526122e4816122a8565b9050919050565b7f416c7265616479207265736f6c76656400000000000000000000000000000000600082015250565b60006123216010836113d9565b915061232c826122eb565b602082019050919050565b6000602082019050818103600083015261235081612314565b905091905056fea2646970667358221220301ac3dedbf886e59a787f8f91092dc8b07dc02c83ad386fb35247fb4dbad59a64736f6c63430008140033",
  "linkReferences": {},
  "deployedLinkReferences": {}
}