{
  "_format": "hh-sol-artifact-1",
  "contractName": "LotteryTicket",
  "sourceName": "contracts/LotteryTicket.sol",
  "abi": [
    {
      "inputs": [],
      "stateMutability": "nonpayable",
      "type": "constructor"
    },
    {
      "inputs": [
        {
          "internalType": "address",
          "name": "sender",
          "type": "address"
        },
        {
          "internalType": "uint256",
          "name": "tokenId",
          "type": "uint256"
        },
        {
          "internalType": "address",
          "name": "owner",
          "type": "address"
        }
      ],
      "name": "ERC721IncorrectOwner",
      "type": "error"
    },
    {
      "inputs": [
        {
          "internalType": "address",
          "name": "operator",
          "type": "address"
        },
        {
          "internalType": "uint256",
          "name": "tokenId",
          "type": "uint256"
        }
      ],
      "name": "ERC721InsufficientApproval",
      "type": "error"
    },
    {
      "inputs": [
        {
          "internalType": "address",
          "name": "approver",
          "type": "address"
        }
      ],
      "name": "ERC721InvalidApprover",
      "type": "error"
    },
    {
      "inputs": [
        {
          "internalType": "address",
          "name": "operator",
          "type": "address"
        }
      ],
      "name": "ERC721InvalidOperator",
      "type": "error"
    },
    {
      "inputs": [
        {
          "internalType": "address",
          "name": "owner",
          "type": "address"
        }
      ],
      "name": "ERC721InvalidOwner",
      "type": "error"
    },
    {
      "inputs": [
        {
          "internalType": "address",
          "name": "receiver",
          "type": "address"
        }
      ],
      "name": "ERC721InvalidReceiver",
      "type": "error"
    },
    {
      "inputs": [
        {
          "internalType": "address",
          "name": "sender",
          "type": "address"
        }
      ],
      "name": "ERC721InvalidSender",
      "type": "error"
    },
    {
      "inputs": [
        {
          "internalType": "uint256",
          "name": "tokenId",
          "type": "uint256"
        }
      ],
      "name": "ERC721NonexistentToken",
      "type": "error"
    },
    {
      "inputs": [
        {
          "internalType": "address",
          "name": "owner",
          "type": "address"
        }
      ],
      "name": "OwnableInvalidOwner",
      "type": "error"
    },
    {
      "inputs": [
        {
          "internalType": "address",
          "name": "account",
          "type": "address"
        }
      ],
      "name": "OwnableUnauthorizedAccount",
      "type": "error"
    },
    {
      "anonymous": false,
      "inputs": [
        {
          "indexed": true,
          "internalType": "address",
          "name": "owner",
          "type": "address"
        },
        {
          "indexed": true,
          "internalType": "address",
          "name": "approved",
          "type": "address"
        },
        {
          "indexed": true,
          "internalType": "uint256",
          "name": "tokenId",
          "type": "uint256"
        }
      ],
      "name": "Approval",
      "type": "event"
    },
    {
      "anonymous": false,
      "inputs": [
        {
          "indexed": true,
          "internalType": "address",
          "name": "owner",
          "type": "address"
        },
        {
          "indexed": true,
          "internalType": "address",
          "name": "operator",
          "type": "address"
        },
        {
          "indexed": false,
          "internalType": "bool",
          "name": "approved",
          "type": "bool"
        }
      ],
      "name": "ApprovalForAll",
      "type": "event"
    },
    {
      "anonymous": false,
      "inputs": [
        {
          "indexed": true,
          "internalType": "address",
          "name": "previousOwner",
          "type": "address"
        },
        {
          "indexed": true,
          "internalType": "address",
          "name": "newOwner",
          "type": "address"
        }
      ],
      "name": "OwnershipTransferred",
      "type": "event"
    },
    {
      "anonymous": false,
      "inputs": [
        {
          "indexed": true,
          "internalType": "address",
          "name": "from",
          "type": "address"
        },
        {
          "indexed": true,
          "internalType": "address",
          "name": "to",
          "type": "address"
        },
        {
          "indexed": true,
          "internalType": "uint256",
          "name": "tokenId",
          "type": "uint256"
        }
      ],
      "name": "Transfer",
      "type": "event"
    },
    {
      "inputs": [
        {
          "internalType": "address",
          "name": "to",
          "type": "address"
        },
        {
          "internalType": "uint256",
          "name": "tokenId",
          "type": "uint256"
        }
      ],
      "name": "approve",
      "outputs": [],
      "stateMutability": "nonpayable",
      "type": "function"
    },
    {
      "inputs": [
        {
          "internalType": "address",
          "name": "owner",
          "type": "address"
        }
      ],
      "name": "balanceOf",
      "outputs": [
        {
          "internalType": "uint256",
          "name": "",
          "type": "uint256"
        }
      ],
      "stateMutability": "view",
      "type": "function"
    },
    {
      "inputs": [
        {
          "internalType": "uint256",
          "name": "tokenId",
          "type": "uint256"
        }
      ],
      "name": "burnTicket",
      "outputs": [],
      "stateMutability": "nonpayable",
      "type": "function"
    },
    {
      "inputs": [
        {
          "internalType": "uint256",
          "name": "tokenId",
          "type": "uint256"
        }
      ],
      "name": "getApproved",
      "outputs": [
        {
          "internalType": "address",
          "name": "",
          "type": "address"
        }
      ],
      "stateMutability": "view",
      "type": "function"
    },
    {
      "inputs": [
        {
          "internalType": "address",
          "name": "owner",
          "type": "address"
        },
        {
          "internalType": "address",
          "name": "operator",
          "type": "address"
        }
      ],
      "name": "isApprovedForAll",
      "outputs": [
        {
          "internalType": "bool",
          "name": "",
          "type": "bool"
        }
      ],
      "stateMutability": "view",
      "type": "function"
    },
    {
      "inputs": [],
      "name": "lotteryContractAddress",
      "outputs": [
        {
          "internalType": "address",
          "name": "",
          "type": "address"
        }
      ],
      "stateMutability": "view",
      "type": "function"
    },
    {
      "inputs": [
        {
          "internalType": "address",
          "name": "to",
          "type": "address"
        },
        {
          "internalType": "uint256",
          "name": "projectId",
          "type": "uint256"
        },
        {
          "internalType": "uint256",
          "name": "optionId",
          "type": "uint256"
        },
        {
          "internalType": "uint256",
          "name": "betAmount",
          "type": "uint256"
        }
      ],
      "name": "mintTicket",
      "outputs": [
        {
          "internalType": "uint256",
          "name": "",
          "type": "uint256"
        }
      ],
      "stateMutability": "nonpayable",
      "type": "function"
    },
    {
      "inputs": [],
      "name": "name",
      "outputs": [
        {
          "internalType": "string",
          "name": "",
          "type": "string"
        }
      ],
      "stateMutability": "view",
      "type": "function"
    },
    {
      "inputs": [],
      "name": "owner",
      "outputs": [
        {
          "internalType": "address",
          "name": "",
          "type": "address"
        }
      ],
      "stateMutability": "view",
      "type": "function"
    },
    {
      "inputs": [
        {
          "internalType": "uint256",
          "name": "tokenId",
          "type": "uint256"
        }
      ],
      "name": "ownerOf",
      "outputs": [
        {
          "internalType": "address",
          "name": "",
          "type": "address"
        }
      ],
      "stateMutability": "view",
      "type": "function"
    },
    {
      "inputs": [],
      "name": "renounceOwnership",
      "outputs": [],
      "stateMutability": "nonpayable",
      "type": "function"
    },
    {
      "inputs": [
        {
          "internalType": "address",
          "name": "from",
          "type": "address"
        },
        {
          "internalType": "address",
          "name": "to",
          "type": "address"
        },
        {
          "internalType": "uint256",
          "name": "tokenId",
          "type": "uint256"
        }
      ],
      "name": "safeTransferFrom",
      "outputs": [],
      "stateMutability": "nonpayable",
      "type": "function"
    },
    {
      "inputs": [
        {
          "internalType": "address",
          "name": "from",
          "type": "address"
        },
        {
          "internalType": "address",
          "name": "to",
          "type": "address"
        },
        {
          "internalType": "uint256",
          "name": "tokenId",
          "type": "uint256"
        },
        {
          "internalType": "bytes",
          "name": "data",
          "type": "bytes"
        }
      ],
      "name": "safeTransferFrom",
      "outputs": [],
      "stateMutability": "nonpayable",
      "type": "function"
    },
    {
      "inputs": [
        {
          "internalType": "address",
          "name": "operator",
          "type": "address"
        },
        {
          "internalType": "bool",
          "name": "approved",
          "type": "bool"
        }
      ],
      "name": "setApprovalForAll",
      "outputs": [],
      "stateMutability": "nonpayable",
      "type": "function"
    },
    {
      "inputs": [
        {
          "internalType": "address",
          "name": "_address",
          "type": "address"
        }
      ],
      "name": "setLotteryContract",
      "outputs": [],
      "stateMutability": "nonpayable",
      "type": "function"
    },
    {
      "inputs": [
        {
          "internalType": "bytes4",
          "name": "interfaceId",
          "type": "bytes4"
        }
      ],
      "name": "supportsInterface",
      "outputs": [
        {
          "internalType": "bool",
          "name": "",
          "type": "bool"
        }
      ],
      "stateMutability": "view",
      "type": "function"
    },
    {
      "inputs": [],
      "name": "symbol",
      "outputs": [
        {
          "internalType": "string",
          "name": "",
          "type": "string"
        }
      ],
      "stateMutability": "view",
      "type": "function"
    },
    {
      "inputs": [
        {
          "internalType": "uint256",
          "name": "",
          "type": "uint256"
        }
      ],
      "name": "ticketInfo",
      "outputs": [
        {
          "internalType": "uint256",
          "name": "projectId",
          "type": "uint256"
        },
        {
          "internalType": "uint256",
          "name": "optionId",
          "type": "uint256"
        },
        {
          "internalType": "uint256",
          "name": "betAmount",
          "type": "uint256"
        }
      ],
      "stateMutability": "view",
      "type": "function"
    },
    {
      "inputs": [
        {
          "internalType": "uint256",
          "name": "tokenId",
          "type": "uint256"
        }
      ],
      "name": "tokenURI",
      "outputs": [
        {
          "internalType": "string",
          "name": "",
          "type": "string"
        }
      ],
      "stateMutability": "view",
      "type": "function"
    },
    {
      "inputs": [
        {
          "internalType": "address",
          "name": "from",
          "type": "address"
        },
        {
          "internalType": "address",
          "name": "to",
          "type": "address"
        },
        {
          "internalType": "uint256",
          "name": "tokenId",
          "type": "uint256"
        }
      ],
      "name": "transferFrom",
      "outputs": [],
      "stateMutability": "nonpayable",
      "type": "function"
    },
    {
      "inputs": [
        {
          "internalType": "address",
          "name": "newOwner",
          "type": "address"
        }
      ],
      "name": "transferOwnership",
      "outputs": [],
      "stateMutability": "nonpayable",
      "type": "function"
    }
  ],
  "bytecode": "0x60806040523480156200001157600080fd5b50336040518060400160405280600e81526020017f4c6f7474657279205469636b65740000000000000000000000000000000000008152506040518060400160405280600381526020017f4c544b0000000000000000000000000000000000000000000000000000000000815250816000908162000090919062000472565b508060019081620000a2919062000472565b505050600073ffffffffffffffffffffffffffffffffffffffff168173ffffffffffffffffffffffffffffffffffffffff16036200011a5760006040517f1e4fbdf70000000000000000000000000000000000000000000000000000000081526004016200011191906200059e565b60405180910390fd5b6200012b816200013260201b60201c565b50620005bb565b6000600660009054906101000a900473ffffffffffffffffffffffffffffffffffffffff16905081600660006101000a81548173ffffffffffffffffffffffffffffffffffffffff021916908373ffffffffffffffffffffffffffffffffffffffff1602179055508173ffffffffffffffffffffffffffffffffffffffff168173ffffffffffffffffffffffffffffffffffffffff167f8be0079c531659141344cd1fd0a4f28419497f9722a3daafe3b4186f6b6457e060405160405180910390a35050565b600081519050919050565b7f4e487b7100000000000000000000000000000000000000000000000000000000600052604160045260246000fd5b7f4e487b7100000000000000000000000000000000000000000000000000000000600052602260045260246000fd5b600060028204905060018216806200027a57607f821691505b60208210810362000290576200028f62000232565b5b50919050565b60008190508160005260206000209050919050565b60006020601f8301049050919050565b600082821b905092915050565b600060088302620002fa7fffffffffffffffffffffffffffffffffffffffffffffffffffffffffffffffff82620002bb565b620003068683620002bb565b95508019841693508086168417925050509392505050565b6000819050919050565b6000819050919050565b6000620003536200034d62000347846200031e565b62000328565b6200031e565b9050919050565b6000819050919050565b6200036f8362000332565b620003876200037e826200035a565b848454620002c8565b825550505050565b600090565b6200039e6200038f565b620003ab81848462000364565b505050565b5b81811015620003d357620003c760008262000394565b600181019050620003b1565b5050565b601f8211156200042257620003ec8162000296565b620003f784620002ab565b8101602085101562000407578190505b6200041f6200041685620002ab565b830182620003b0565b50505b505050565b600082821c905092915050565b6000620004476000198460080262000427565b1980831691505092915050565b600062000462838362000434565b9150826002028217905092915050565b6200047d82620001f8565b67ffffffffffffffff81111562000499576200049862000203565b5b620004a5825462000261565b620004b2828285620003d7565b600060209050601f831160018114620004ea5760008415620004d5578287015190505b620004e1858262000454565b86555062000551565b601f198416620004fa8662000296565b60005b828110156200052457848901518255600182019150602085019450602081019050620004fd565b8683101562000544578489015162000540601f89168262000434565b8355505b6001600288020188555050505b505050505050565b600073ffffffffffffffffffffffffffffffffffffffff82169050919050565b6000620005868262000559565b9050919050565b620005988162000579565b82525050565b6000602082019050620005b560008301846200058d565b92915050565b6125b180620005cb6000396000f3fe608060405234801561001057600080fd5b50600436106101375760003560e01c806370a08231116100b8578063a476b73d1161007c578063a476b73d1461033a578063b88d4fde14610356578063c87b56dd14610372578063e985e9c5146103a2578063f2fde38b146103d2578063fa713083146103ee57610137565b806370a08231146102a8578063715018a6146102d85780638da5cb5b146102e257806395d89b4114610300578063a22cb4651461031e57610137565b806323b872dd116100ff57806323b872dd146101f257806342842e0e1461020e57806345b33c7f1461022a5780634945646e146102485780636352211e1461027857610137565b806301ffc9a71461013c57806306fdde031461016c578063081812fc1461018a578063095ea7b3146101ba5780631590a04f146101d6575b600080fd5b61015660048036038101906101519190611c7a565b610420565b6040516101639190611cc2565b60405180910390f35b610174610502565b6040516101819190611d6d565b60405180910390f35b6101a4600480360381019061019f9190611dc5565b610594565b6040516101b19190611e33565b60405180910390f35b6101d460048036038101906101cf9190611e7a565b6105b0565b005b6101f060048036038101906101eb9190611eba565b6105c6565b005b61020c60048036038101906102079190611ee7565b610612565b005b61022860048036038101906102239190611ee7565b610714565b005b610232610734565b60405161023f9190611e33565b60405180910390f35b610262600480360381019061025d9190611f3a565b61075a565b60405161026f9190611fb0565b60405180910390f35b610292600480360381019061028d9190611dc5565b610870565b60405161029f9190611e33565b60405180910390f35b6102c260048036038101906102bd9190611eba565b610882565b6040516102cf9190611fb0565b60405180910390f35b6102e061093c565b005b6102ea610950565b6040516102f79190611e33565b60405180910390f35b61030861097a565b6040516103159190611d6d565b60405180910390f35b61033860048036038101906103339190611ff7565b610a0c565b005b610354600480360381019061034f9190611dc5565b610a22565b005b610370600480360381019061036b919061216c565b610aec565b005b61038c60048036038101906103879190611dc5565b610b11565b6040516103999190611d6d565b60405180910390f35b6103bc60048036038101906103b791906121ef565b610b7a565b6040516103c99190611cc2565b60405180910390f35b6103ec60048036038101906103e79190611eba565b610c0e565b005b61040860048036038101906104039190611dc5565b610c94565b6040516104179392919061222f565b60405180910390f35b60007f80ac58cd000000000000000000000000000000000000000000000000000000007bffffffffffffffffffffffffffffffffffffffffffffffffffffffff1916827bffffffffffffffffffffffffffffffffffffffffffffffffffffffff191614806104eb57507f5b5e139f000000000000000000000000000000000000000000000000000000007bffffffffffffffffffffffffffffffffffffffffffffffffffffffff1916827bffffffffffffffffffffffffffffffffffffffffffffffffffffffff1916145b806104fb57506104fa82610cbe565b5b9050919050565b60606000805461051190612295565b80601f016020809104026020016040519081016040528092919081815260200182805461053d90612295565b801561058a5780601f1061055f5761010080835404028352916020019161058a565b820191906000526020600020905b81548152906001019060200180831161056d57829003601f168201915b5050505050905090565b600061059f82610d28565b506105a982610db0565b9050919050565b6105c282826105bd610ded565b610df5565b5050565b6105ce610e07565b80600860006101000a81548173ffffffffffffffffffffffffffffffffffffffff021916908373ffffffffffffffffffffffffffffffffffffffff16021790555050565b600073ffffffffffffffffffffffffffffffffffffffff168273ffffffffffffffffffffffffffffffffffffffff16036106845760006040517f64a0ae9200000000000000000000000000000000000000000000000000000000815260040161067b9190611e33565b60405180910390fd5b60006106988383610693610ded565b610e8e565b90508373ffffffffffffffffffffffffffffffffffffffff168173ffffffffffffffffffffffffffffffffffffffff161461070e578382826040517f64283d7b000000000000000000000000000000000000000000000000000000008152600401610705939291906122c6565b60405180910390fd5b50505050565b61072f83838360405180602001604052806000815250610aec565b505050565b600860009054906101000a900473ffffffffffffffffffffffffffffffffffffffff1681565b6000600860009054906101000a900473ffffffffffffffffffffffffffffffffffffffff1673ffffffffffffffffffffffffffffffffffffffff163373ffffffffffffffffffffffffffffffffffffffff16146107ec576040517f08c379a00000000000000000000000000000000000000000000000000000000081526004016107e390612349565b60405180910390fd5b600060075490506107fd86826110a8565b604051806060016040528086815260200185815260200184815250600960008381526020019081526020016000206000820151816000015560208201518160010155604082015181600201559050506007600081548092919061085f90612398565b919050555080915050949350505050565b600061087b82610d28565b9050919050565b60008073ffffffffffffffffffffffffffffffffffffffff168273ffffffffffffffffffffffffffffffffffffffff16036108f55760006040517f89c62b640000000000000000000000000000000000000000000000000000000081526004016108ec9190611e33565b60405180910390fd5b600360008373ffffffffffffffffffffffffffffffffffffffff1673ffffffffffffffffffffffffffffffffffffffff168152602001908152602001600020549050919050565b610944610e07565b61094e60006110c6565b565b6000600660009054906101000a900473ffffffffffffffffffffffffffffffffffffffff16905090565b60606001805461098990612295565b80601f01602080910402602001604051908101604052809291908181526020018280546109b590612295565b8015610a025780601f106109d757610100808354040283529160200191610a02565b820191906000526020600020905b8154815290600101906020018083116109e557829003601f168201915b5050505050905090565b610a1e610a17610ded565b838361118c565b5050565b600860009054906101000a900473ffffffffffffffffffffffffffffffffffffffff1673ffffffffffffffffffffffffffffffffffffffff163373ffffffffffffffffffffffffffffffffffffffff1614610ab2576040517f08c379a0000000000000000000000000000000000000000000000000000000008152600401610aa990612349565b60405180910390fd5b610abb816112fb565b6009600082815260200190815260200160002060008082016000905560018201600090556002820160009055505050565b610af7848484610612565b610b0b610b02610ded565b85858585611381565b50505050565b6060610b1c82610d28565b506000610b27611532565b90506000815111610b475760405180602001604052806000815250610b72565b80610b5184611549565b604051602001610b6292919061241c565b6040516020818303038152906040525b915050919050565b6000600560008473ffffffffffffffffffffffffffffffffffffffff1673ffffffffffffffffffffffffffffffffffffffff16815260200190815260200160002060008373ffffffffffffffffffffffffffffffffffffffff1673ffffffffffffffffffffffffffffffffffffffff16815260200190815260200160002060009054906101000a900460ff16905092915050565b610c16610e07565b600073ffffffffffffffffffffffffffffffffffffffff168173ffffffffffffffffffffffffffffffffffffffff1603610c885760006040517f1e4fbdf7000000000000000000000000000000000000000000000000000000008152600401610c7f9190611e33565b60405180910390fd5b610c91816110c6565b50565b60096020528060005260406000206000915090508060000154908060010154908060020154905083565b60007f01ffc9a7000000000000000000000000000000000000000000000000000000007bffffffffffffffffffffffffffffffffffffffffffffffffffffffff1916827bffffffffffffffffffffffffffffffffffffffffffffffffffffffff1916149050919050565b600080610d3483611617565b9050600073ffffffffffffffffffffffffffffffffffffffff168173ffffffffffffffffffffffffffffffffffffffff1603610da757826040517f7e273289000000000000000000000000000000000000000000000000000000008152600401610d9e9190611fb0565b60405180910390fd5b80915050919050565b60006004600083815260200190815260200160002060009054906101000a900473ffffffffffffffffffffffffffffffffffffffff169050919050565b600033905090565b610e028383836001611654565b505050565b610e0f610ded565b73ffffffffffffffffffffffffffffffffffffffff16610e2d610950565b73ffffffffffffffffffffffffffffffffffffffff1614610e8c57610e50610ded565b6040517f118cdaa7000000000000000000000000000000000000000000000000000000008152600401610e839190611e33565b60405180910390fd5b565b600080610e9a84611617565b9050600073ffffffffffffffffffffffffffffffffffffffff168373ffffffffffffffffffffffffffffffffffffffff1614610edc57610edb818486611819565b5b600073ffffffffffffffffffffffffffffffffffffffff168173ffffffffffffffffffffffffffffffffffffffff1614610f6d57610f1e600085600080611654565b6001600360008373ffffffffffffffffffffffffffffffffffffffff1673ffffffffffffffffffffffffffffffffffffffff168152602001908152602001600020600082825403925050819055505b600073ffffffffffffffffffffffffffffffffffffffff168573ffffffffffffffffffffffffffffffffffffffff1614610ff0576001600360008773ffffffffffffffffffffffffffffffffffffffff1673ffffffffffffffffffffffffffffffffffffffff168152602001908152602001600020600082825401925050819055505b846002600086815260200190815260200160002060006101000a81548173ffffffffffffffffffffffffffffffffffffffff021916908373ffffffffffffffffffffffffffffffffffffffff160217905550838573ffffffffffffffffffffffffffffffffffffffff168273ffffffffffffffffffffffffffffffffffffffff167fddf252ad1be2c89b69c2b068fc378daa952ba7f163c4a11628f55a4df523b3ef60405160405180910390a4809150509392505050565b6110c28282604051806020016040528060008152506118dd565b5050565b6000600660009054906101000a900473ffffffffffffffffffffffffffffffffffffffff16905081600660006101000a81548173ffffffffffffffffffffffffffffffffffffffff021916908373ffffffffffffffffffffffffffffffffffffffff1602179055508173ffffffffffffffffffffffffffffffffffffffff168173ffffffffffffffffffffffffffffffffffffffff167f8be0079c531659141344cd1fd0a4f28419497f9722a3daafe3b4186f6b6457e060405160405180910390a35050565b600073ffffffffffffffffffffffffffffffffffffffff168273ffffffffffffffffffffffffffffffffffffffff16036111fd57816040517f5b08ba180000000000000000000000000000000000000000000000000000000081526004016111f49190611e33565b60405180910390fd5b80600560008573ffffffffffffffffffffffffffffffffffffffff1673ffffffffffffffffffffffffffffffffffffffff16815260200190815260200160002060008473ffffffffffffffffffffffffffffffffffffffff1673ffffffffffffffffffffffffffffffffffffffff16815260200190815260200160002060006101000a81548160ff0219169083151502179055508173ffffffffffffffffffffffffffffffffffffffff168373ffffffffffffffffffffffffffffffffffffffff167f17307eab39ab6107e8899845ad3d59bd9653f200f220920489ca2b5937696c31836040516112ee9190611cc2565b60405180910390a3505050565b600061130a6000836000610e8e565b9050600073ffffffffffffffffffffffffffffffffffffffff168173ffffffffffffffffffffffffffffffffffffffff160361137d57816040517f7e2732890000000000000000000000000000000000000000000000000000000081526004016113749190611fb0565b60405180910390fd5b5050565b60008373ffffffffffffffffffffffffffffffffffffffff163b111561152b578273ffffffffffffffffffffffffffffffffffffffff1663150b7a02868685856040518563ffffffff1660e01b81526004016113e09493929190612495565b6020604051808303816000875af192505050801561141c57506040513d601f19601f8201168201806040525081019061141991906124f6565b60015b6114a0573d806000811461144c576040519150601f19603f3d011682016040523d82523d6000602084013e611451565b606091505b50600081510361149857836040517f64a0ae9200000000000000000000000000000000000000000000000000000000815260040161148f9190611e33565b60405180910390fd5b805160208201fd5b63150b7a0260e01b7bffffffffffffffffffffffffffffffffffffffffffffffffffffffff1916817bffffffffffffffffffffffffffffffffffffffffffffffffffffffff19161461152957836040517f64a0ae920000000000000000000000000000000000000000000000000000000081526004016115209190611e33565b60405180910390fd5b505b5050505050565b606060405180602001604052806000815250905090565b60606000600161155884611901565b01905060008167ffffffffffffffff81111561157757611576612041565b5b6040519080825280601f01601f1916602001820160405280156115a95781602001600182028036833780820191505090505b509050600082602083010190505b60011561160c578080600190039150507f3031323334353637383961626364656600000000000000000000000000000000600a86061a8153600a8581611600576115ff612523565b5b049450600085036115b7575b819350505050919050565b60006002600083815260200190815260200160002060009054906101000a900473ffffffffffffffffffffffffffffffffffffffff169050919050565b808061168d5750600073ffffffffffffffffffffffffffffffffffffffff168273ffffffffffffffffffffffffffffffffffffffff1614155b156117c157600061169d84610d28565b9050600073ffffffffffffffffffffffffffffffffffffffff168373ffffffffffffffffffffffffffffffffffffffff161415801561170857508273ffffffffffffffffffffffffffffffffffffffff168173ffffffffffffffffffffffffffffffffffffffff1614155b801561171b57506117198184610b7a565b155b1561175d57826040517fa9fbf51f0000000000000000000000000000000000000000000000000000000081526004016117549190611e33565b60405180910390fd5b81156117bf57838573ffffffffffffffffffffffffffffffffffffffff168273ffffffffffffffffffffffffffffffffffffffff167f8c5be1e5ebec7d5bd14f71427d1e84f3dd0314c0f7b2291e5b200ac8c7c3b92560405160405180910390a45b505b836004600085815260200190815260200160002060006101000a81548173ffffffffffffffffffffffffffffffffffffffff021916908373ffffffffffffffffffffffffffffffffffffffff16021790555050505050565b611824838383611a54565b6118d857600073ffffffffffffffffffffffffffffffffffffffff168373ffffffffffffffffffffffffffffffffffffffff160361189957806040517f7e2732890000000000000000000000000000000000000000000000000000000081526004016118909190611fb0565b60405180910390fd5b81816040517f177e802f0000000000000000000000000000000000000000000000000000000081526004016118cf929190612552565b60405180910390fd5b505050565b6118e78383611b15565b6118fc6118f2610ded565b6000858585611381565b505050565b600080600090507a184f03e93ff9f4daa797ed6e38ed64bf6a1f010000000000000000831061195f577a184f03e93ff9f4daa797ed6e38ed64bf6a1f010000000000000000838161195557611954612523565b5b0492506040810190505b6d04ee2d6d415b85acef8100000000831061199c576d04ee2d6d415b85acef8100000000838161199257611991612523565b5b0492506020810190505b662386f26fc1000083106119cb57662386f26fc1000083816119c1576119c0612523565b5b0492506010810190505b6305f5e10083106119f4576305f5e10083816119ea576119e9612523565b5b0492506008810190505b6127108310611a19576127108381611a0f57611a0e612523565b5b0492506004810190505b60648310611a3c5760648381611a3257611a31612523565b5b0492506002810190505b600a8310611a4b576001810190505b80915050919050565b60008073ffffffffffffffffffffffffffffffffffffffff168373ffffffffffffffffffffffffffffffffffffffff1614158015611b0c57508273ffffffffffffffffffffffffffffffffffffffff168473ffffffffffffffffffffffffffffffffffffffff161480611acd5750611acc8484610b7a565b5b80611b0b57508273ffffffffffffffffffffffffffffffffffffffff16611af383610db0565b73ffffffffffffffffffffffffffffffffffffffff16145b5b90509392505050565b600073ffffffffffffffffffffffffffffffffffffffff168273ffffffffffffffffffffffffffffffffffffffff1603611b875760006040517f64a0ae92000000000000000000000000000000000000000000000000000000008152600401611b7e9190611e33565b60405180910390fd5b6000611b9583836000610e8e565b9050600073ffffffffffffffffffffffffffffffffffffffff168173ffffffffffffffffffffffffffffffffffffffff1614611c095760006040517f73c6ac6e000000000000000000000000000000000000000000000000000000008152600401611c009190611e33565b60405180910390fd5b505050565b6000604051905090565b600080fd5b600080fd5b60007fffffffff0000000000000000000000000000000000000000000000000000000082169050919050565b611c5781611c22565b8114611c6257600080fd5b50565b600081359050611c7481611c4e565b92915050565b600060208284031215611c9057611c8f611c18565b5b6000611c9e84828501611c65565b91505092915050565b60008115159050919050565b611cbc81611ca7565b82525050565b6000602082019050611cd76000830184611cb3565b92915050565b600081519050919050565b600082825260208201905092915050565b60005b83811015611d17578082015181840152602081019050611cfc565b60008484015250505050565b6000601f19601f8301169050919050565b6000611d3f82611cdd565b611d498185611ce8565b9350611d59818560208601611cf9565b611d6281611d23565b840191505092915050565b60006020820190508181036000830152611d878184611d34565b905092915050565b6000819050919050565b611da281611d8f565b8114611dad57600080fd5b50565b600081359050611dbf81611d99565b92915050565b600060208284031215611ddb57611dda611c18565b5b6000611de984828501611db0565b91505092915050565b600073ffffffffffffffffffffffffffffffffffffffff82169050919050565b6000611e1d82611df2565b9050919050565b611e2d81611e12565b82525050565b6000602082019050611e486000830184611e24565b92915050565b611e5781611e12565b8114611e6257600080fd5b50565b600081359050611e7481611e4e565b92915050565b60008060408385031215611e9157611e90611c18565b5b6000611e9f85828601611e65565b9250506020611eb085828601611db0565b9150509250929050565b600060208284031215611ed057611ecf611c18565b5b6000611ede84828501611e65565b91505092915050565b600080600060608486031215611f0057611eff611c18565b5b6000611f0e86828701611e65565b9350506020611f1f86828701611e65565b9250506040611f3086828701611db0565b9150509250925092565b60008060008060808587031215611f5457611f53611c18565b5b6000611f6287828801611e65565b9450506020611f7387828801611db0565b9350506040611f8487828801611db0565b9250506060611f9587828801611db0565b91505092959194509250565b611faa81611d8f565b82525050565b6000602082019050611fc56000830184611fa1565b92915050565b611fd481611ca7565b8114611fdf57600080fd5b50565b600081359050611ff181611fcb565b92915050565b6000806040838503121561200e5761200d611c18565b5b600061201c85828601611e65565b925050602061202d85828601611fe2565b9150509250929050565b600080fd5b600080fd5b7f4e487b7100000000000000000000000000000000000000000000000000000000600052604160045260246000fd5b61207982611d23565b810181811067ffffffffffffffff8211171561209857612097612041565b5b80604052505050565b60006120ab611c0e565b90506120b78282612070565b919050565b600067ffffffffffffffff8211156120d7576120d6612041565b5b6120e082611d23565b9050602081019050919050565b82818337600083830152505050565b600061210f61210a846120bc565b6120a1565b90508281526020810184848401111561212b5761212a61203c565b5b6121368482856120ed565b509392505050565b600082601f83011261215357612152612037565b5b81356121638482602086016120fc565b91505092915050565b6000806000806080858703121561218657612185611c18565b5b600061219487828801611e65565b94505060206121a587828801611e65565b93505060406121b687828801611db0565b925050606085013567ffffffffffffffff8111156121d7576121d6611c1d565b5b6121e38782880161213e565b91505092959194509250565b6000806040838503121561220657612205611c18565b5b600061221485828601611e65565b925050602061222585828601611e65565b9150509250929050565b60006060820190506122446000830186611fa1565b6122516020830185611fa1565b61225e6040830184611fa1565b949350505050565b7f4e487b7100000000000000000000000000000000000000000000000000000000600052602260045260246000fd5b600060028204905060018216806122ad57607f821691505b6020821081036122c0576122bf612266565b5b50919050565b60006060820190506122db6000830186611e24565b6122e86020830185611fa1565b6122f56040830184611e24565b949350505050565b7f4f6e6c79206c6f747465727920636f6e74726163740000000000000000000000600082015250565b6000612333601583611ce8565b915061233e826122fd565b602082019050919050565b6000602082019050818103600083015261236281612326565b9050919050565b7f4e487b7100000000000000000000000000000000000000000000000000000000600052601160045260246000fd5b60006123a382611d8f565b91507fffffffffffffffffffffffffffffffffffffffffffffffffffffffffffffffff82036123d5576123d4612369565b5b600182019050919050565b600081905092915050565b60006123f682611cdd565b61240081856123e0565b9350612410818560208601611cf9565b80840191505092915050565b600061242882856123eb565b915061243482846123eb565b91508190509392505050565b600081519050919050565b600082825260208201905092915050565b600061246782612440565b612471818561244b565b9350612481818560208601611cf9565b61248a81611d23565b840191505092915050565b60006080820190506124aa6000830187611e24565b6124b76020830186611e24565b6124c46040830185611fa1565b81810360608301526124d6818461245c565b905095945050505050565b6000815190506124f081611c4e565b92915050565b60006020828403121561250c5761250b611c18565b5b600061251a848285016124e1565b91505092915050565b7f4e487b7100000000000000000000000000000000000000000000000000000000600052601260045260246000fd5b60006040820190506125676000830185611e24565b6125746020830184611fa1565b939250505056fea26469706673582212200731d752e2f4fcd86cac3891df2fb5ed7128db078136865af897bc83fca5539964736f6c63430008140033",
  "linkReferences": {},
  "deployedLinkReferences": {}
}